{
  "contractName": "CryptoSOS",
  "abi": [
    {
      "inputs": [],
      "stateMutability": "nonpayable",
      "type": "constructor"
    },
    {
      "anonymous": false,
      "inputs": [
        {
          "indexed": false,
          "internalType": "address",
          "name": "_playerAddress",
          "type": "address"
        },
        {
          "indexed": false,
          "internalType": "uint8",
          "name": "_placement",
          "type": "uint8"
        },
        {
          "indexed": false,
          "internalType": "uint8",
          "name": "_symbol",
          "type": "uint8"
        }
      ],
      "name": "MoveEvent",
      "type": "event"
    },
    {
      "anonymous": false,
      "inputs": [
        {
          "indexed": false,
          "internalType": "address",
          "name": "_firstPlayer",
          "type": "address"
        },
        {
          "indexed": false,
          "internalType": "address",
          "name": "_secondPlayer",
          "type": "address"
        }
      ],
      "name": "NewGame",
      "type": "event"
    },
    {
      "inputs": [],
      "name": "play",
      "outputs": [],
      "stateMutability": "payable",
      "type": "function",
      "payable": true
    },
    {
      "inputs": [
        {
          "internalType": "uint8",
          "name": "_placement",
          "type": "uint8"
        }
      ],
      "name": "placeS",
      "outputs": [],
      "stateMutability": "nonpayable",
      "type": "function"
    },
    {
      "inputs": [
        {
          "internalType": "uint8",
          "name": "_placement",
          "type": "uint8"
        }
      ],
      "name": "placeO",
      "outputs": [],
      "stateMutability": "nonpayable",
      "type": "function"
    },
    {
      "inputs": [],
      "name": "getGameState",
      "outputs": [
        {
          "internalType": "string",
          "name": "grid_",
          "type": "string"
        }
      ],
      "stateMutability": "view",
      "type": "function",
      "constant": true
    },
    {
      "inputs": [],
      "name": "collectProfit",
      "outputs": [],
      "stateMutability": "nonpayable",
      "type": "function"
    },
    {
      "inputs": [],
      "name": "cancel",
      "outputs": [],
      "stateMutability": "nonpayable",
      "type": "function"
    },
    {
      "inputs": [],
      "name": "ur2slow",
      "outputs": [],
      "stateMutability": "nonpayable",
      "type": "function"
    },
    {
      "inputs": [],
      "name": "gameExpired",
      "outputs": [],
      "stateMutability": "nonpayable",
      "type": "function"
    }
  ],
  "bytecode": "0x60806040527f53000000000000000000000000000000000000000000000000000000000000006000806101000a81548160ff021916908360f81c02179055507f4f00000000000000000000000000000000000000000000000000000000000000600060016101000a81548160ff021916908360f81c02179055507f2d00000000000000000000000000000000000000000000000000000000000000600060026101000a81548160ff021916908360f81c0217905550348015620000c157600080fd5b5033600260006101000a81548173ffffffffffffffffffffffffffffffffffffffff021916908373ffffffffffffffffffffffffffffffffffffffff160217905550620001136200011960201b60201c565b620002f2565b600967ffffffffffffffff811180156200013257600080fd5b506040519080825280601f01601f191660200182016040528015620001665781602001600182028036833780820191505090505b50600190805190602001906200017e9291906200023c565b506200018f6200019160201b60201c565b565b60005b60098160ff1610156200023957600060029054906101000a900460f81b60018260ff16815460018160011615610100020316600290048110620001d357fe5b815460011615620001f35790600052602060002090602091828204019190065b601f036101000a81548160ff021916907f010000000000000000000000000000000000000000000000000000000000000084040217905550808060010191505062000194565b50565b828054600181600116156101000203166002900490600052602060002090601f016020900481019282620002745760008555620002c0565b82601f106200028f57805160ff1916838001178555620002c0565b82800160010185558215620002c0579182015b82811115620002bf578251825591602001919060010190620002a2565b5b509050620002cf9190620002d3565b5090565b5b80821115620002ee576000816000905550600101620002d4565b5090565b6124af80620003026000396000f3fe60806040526004361061007b5760003560e01c8063ca66ac841161004e578063ca66ac841461016f578063cacd7109146101ad578063e0027a06146101c4578063ea8a1af0146101db5761007b565b8063795ea9111461008057806393e84cd9146100be578063b7d0628b146100c8578063c7faa88d14610158575b600080fd5b34801561008c57600080fd5b506100bc600480360360208110156100a357600080fd5b81019080803560ff1690602001909291905050506101f2565b005b6100c6610459565b005b3480156100d457600080fd5b506100dd61097f565b6040518080602001828103825283818151815260200191508051906020019080838360005b8381101561011d578082015181840152602081019050610102565b50505050905090810190601f16801561014a5780820380516001836020036101000a031916815260200191505b509250505060405180910390f35b34801561016457600080fd5b5061016d610a21565b005b34801561017b57600080fd5b506101ab6004803603602081101561019257600080fd5b81019080803560ff169060200190929190505050610b3c565b005b3480156101b957600080fd5b506101c2610da1565b005b3480156101d057600080fd5b506101d961116f565b005b3480156101e757600080fd5b506101f0611385565b005b600460009054906101000a900473ffffffffffffffffffffffffffffffffffffffff1673ffffffffffffffffffffffffffffffffffffffff163373ffffffffffffffffffffffffffffffffffffffff16148061029b5750600560009054906101000a900473ffffffffffffffffffffffffffffffffffffffff1673ffffffffffffffffffffffffffffffffffffffff163373ffffffffffffffffffffffffffffffffffffffff16145b6102f0576040517f08c379a000000000000000000000000000000000000000000000000000000000815260040180806020018281038252602e8152602001806123dc602e913960400191505060405180910390fd5b80600660009054906101000a900473ffffffffffffffffffffffffffffffffffffffff1673ffffffffffffffffffffffffffffffffffffffff163373ffffffffffffffffffffffffffffffffffffffff16146103b4576040517f08c379a000000000000000000000000000000000000000000000000000000000815260040180806020018281038252601c8152602001807f4974206973206e6f7420796f7572207475726e20746f20706c61792e0000000081525060200191505060405180910390fd5b60008160ff161180156103ca5750600a8160ff16105b61043c576040517f08c379a000000000000000000000000000000000000000000000000000000000815260040180806020018281038252601d8152602001807f54686520696e70757420676976656e206973206e6f742076616c69642e00000081525060200191505060405180910390fd5b61045582600060019054906101000a900460f81b611623565b5050565b610484600460009054906101000a900473ffffffffffffffffffffffffffffffffffffffff166118cd565b806104b657506104b5600560009054906101000a900473ffffffffffffffffffffffffffffffffffffffff166118cd565b5b610528576040517f08c379a000000000000000000000000000000000000000000000000000000000815260040180806020018281038252601d8152602001807f5468652067616d652068617320616c726561647920737461727465642e00000081525060200191505060405180910390fd5b600460009054906101000a900473ffffffffffffffffffffffffffffffffffffffff1673ffffffffffffffffffffffffffffffffffffffff163373ffffffffffffffffffffffffffffffffffffffff1614156105ec576040517f08c379a00000000000000000000000000000000000000000000000000000000081526004018080602001828103825260208152602001807f596f75206861766520616c72656164792071756575656420746f20706c61792e81525060200191505060405180910390fd5b670de0b6b3a7640000341461064c576040517f08c379a00000000000000000000000000000000000000000000000000000000081526004018080602001828103825260358152602001806124456035913960400191505060405180910390fd5b600033905061067c600460009054906101000a900473ffffffffffffffffffffffffffffffffffffffff166118cd565b1561076b57670de0b6b3a76400006003819055504260078190555080600460006101000a81548173ffffffffffffffffffffffffffffffffffffffff021916908373ffffffffffffffffffffffffffffffffffffffff1602179055507fd1af9b1127c37da1f8a3d2e4e7d92bcbfa7bfa2ccf9ce1d29530052e366cc901600460009054906101000a900473ffffffffffffffffffffffffffffffffffffffff166000604051808373ffffffffffffffffffffffffffffffffffffffff1681526020018273ffffffffffffffffffffffffffffffffffffffff1681526020019250505060405180910390a161097c565b610796600560009054906101000a900473ffffffffffffffffffffffffffffffffffffffff166118cd565b1561090d57670de0b6b3a7640000600354016003819055504260088190555080600560006101000a81548173ffffffffffffffffffffffffffffffffffffffff021916908373ffffffffffffffffffffffffffffffffffffffff1602179055507fd1af9b1127c37da1f8a3d2e4e7d92bcbfa7bfa2ccf9ce1d29530052e366cc901600460009054906101000a900473ffffffffffffffffffffffffffffffffffffffff16600560009054906101000a900473ffffffffffffffffffffffffffffffffffffffff16604051808373ffffffffffffffffffffffffffffffffffffffff1681526020018273ffffffffffffffffffffffffffffffffffffffff1681526020019250505060405180910390a1600460009054906101000a900473ffffffffffffffffffffffffffffffffffffffff16600660006101000a81548173ffffffffffffffffffffffffffffffffffffffff021916908373ffffffffffffffffffffffffffffffffffffffff16021790555061097b565b6040517f08c379a00000000000000000000000000000000000000000000000000000000081526004018080602001828103825260168152602001807f496c6c6567616c20737461746520726561636865642e0000000000000000000081525060200191505060405180910390fd5b5b50565b606060018054600181600116156101000203166002900480601f016020809104026020016040519081016040528092919081815260200182805460018160011615610100020316600290048015610a175780601f106109ec57610100808354040283529160200191610a17565b820191906000526020600020905b8154815290600101906020018083116109fa57829003601f168201915b5050505050905090565b600260009054906101000a900473ffffffffffffffffffffffffffffffffffffffff1673ffffffffffffffffffffffffffffffffffffffff163373ffffffffffffffffffffffffffffffffffffffff1614610ac7576040517f08c379a000000000000000000000000000000000000000000000000000000000815260040180806020018281038252602e81526020018061227d602e913960400191505060405180910390fd5b600060035447039050600260009054906101000a900473ffffffffffffffffffffffffffffffffffffffff1673ffffffffffffffffffffffffffffffffffffffff166108fc829081150290604051600060405180830381858888f19350505050158015610b38573d6000803e3d6000fd5b5050565b600460009054906101000a900473ffffffffffffffffffffffffffffffffffffffff1673ffffffffffffffffffffffffffffffffffffffff163373ffffffffffffffffffffffffffffffffffffffff161480610be55750600560009054906101000a900473ffffffffffffffffffffffffffffffffffffffff1673ffffffffffffffffffffffffffffffffffffffff163373ffffffffffffffffffffffffffffffffffffffff16145b610c3a576040517f08c379a000000000000000000000000000000000000000000000000000000000815260040180806020018281038252602e8152602001806123dc602e913960400191505060405180910390fd5b80600660009054906101000a900473ffffffffffffffffffffffffffffffffffffffff1673ffffffffffffffffffffffffffffffffffffffff163373ffffffffffffffffffffffffffffffffffffffff1614610cfe576040517f08c379a000000000000000000000000000000000000000000000000000000000815260040180806020018281038252601c8152602001807f4974206973206e6f7420796f7572207475726e20746f20706c61792e0000000081525060200191505060405180910390fd5b60008160ff16118015610d145750600a8160ff16105b610d86576040517f08c379a000000000000000000000000000000000000000000000000000000000815260040180806020018281038252601d8152602001807f54686520696e70757420676976656e206973206e6f742076616c69642e00000081525060200191505060405180910390fd5b610d9d8260008054906101000a900460f81b611623565b5050565b600460009054906101000a900473ffffffffffffffffffffffffffffffffffffffff1673ffffffffffffffffffffffffffffffffffffffff163373ffffffffffffffffffffffffffffffffffffffff161480610e4a5750600560009054906101000a900473ffffffffffffffffffffffffffffffffffffffff1673ffffffffffffffffffffffffffffffffffffffff163373ffffffffffffffffffffffffffffffffffffffff16145b610e9f576040517f08c379a000000000000000000000000000000000000000000000000000000000815260040180806020018281038252602e8152602001806123dc602e913960400191505060405180910390fd5b610eca600560009054906101000a900473ffffffffffffffffffffffffffffffffffffffff166118cd565b15610f20576040517f08c379a00000000000000000000000000000000000000000000000000000000081526004018080602001828103825260408152602001806122dd6040913960400191505060405180910390fd5b603c80600854420311604051602001808061234a60589139605801905060405160208183030381529060405290610ff2576040517f08c379a00000000000000000000000000000000000000000000000000000000081526004018080602001828103825283818151815260200191508051906020019080838360005b83811015610fb7578082015181840152602081019050610f9c565b50505050905090810190601f168015610fe45780820380516001836020036101000a031916815260200191505b509250505060405180910390fd5b50600660009054906101000a900473ffffffffffffffffffffffffffffffffffffffff1673ffffffffffffffffffffffffffffffffffffffff163373ffffffffffffffffffffffffffffffffffffffff16141561109a576040517f08c379a00000000000000000000000000000000000000000000000000000000081526004018080602001828103825260328152602001806122ab6032913960400191505060405180910390fd5b60006110a4611905565b90507f6c0a018f8a48aaa6e8bfc987d3635d18e996b6379223ab06a25518df9af24f9f81600080604051808473ffffffffffffffffffffffffffffffffffffffff168152602001838152602001828152602001935050505060405180910390a161110c6119d2565b611114611a9a565b60006003819055508073ffffffffffffffffffffffffffffffffffffffff166108fc671a5e27eef13e00009081150290604051600060405180830381858888f1935050505015801561116a573d6000803e3d6000fd5b505050565b61119a600560009054906101000a900473ffffffffffffffffffffffffffffffffffffffff166118cd565b156111f0576040517f08c379a00000000000000000000000000000000000000000000000000000000081526004018080602001828103825260408152602001806122dd6040913960400191505060405180910390fd5b600260009054906101000a900473ffffffffffffffffffffffffffffffffffffffff1673ffffffffffffffffffffffffffffffffffffffff163373ffffffffffffffffffffffffffffffffffffffff1614611296576040517f08c379a000000000000000000000000000000000000000000000000000000000815260040180806020018281038252602e81526020018061227d602e913960400191505060405180910390fd5b61012c80600854420311604051602001808061234a60589139605801905060405160208183030381529060405290611369576040517f08c379a00000000000000000000000000000000000000000000000000000000081526004018080602001828103825283818151815260200191508051906020019080838360005b8381101561132e578082015181840152602081019050611313565b50505050905090810190601f16801561135b5780820380516001836020036101000a031916815260200191505b509250505060405180910390fd5b506113726119d2565b61137a611a9a565b600060038190555050565b600460009054906101000a900473ffffffffffffffffffffffffffffffffffffffff1673ffffffffffffffffffffffffffffffffffffffff163373ffffffffffffffffffffffffffffffffffffffff16148061142e5750600560009054906101000a900473ffffffffffffffffffffffffffffffffffffffff1673ffffffffffffffffffffffffffffffffffffffff163373ffffffffffffffffffffffffffffffffffffffff16145b611483576040517f08c379a000000000000000000000000000000000000000000000000000000000815260040180806020018281038252602e8152602001806123dc602e913960400191505060405180910390fd5b6114ae600560009054906101000a900473ffffffffffffffffffffffffffffffffffffffff166118cd565b611503576040517f08c379a000000000000000000000000000000000000000000000000000000000815260040180806020018281038252603b81526020018061240a603b913960400191505060405180910390fd5b6078600754420311611560576040517f08c379a000000000000000000000000000000000000000000000000000000000815260040180806020018281038252603a8152602001806123a2603a913960400191505060405180910390fd5b6000600460009054906101000a900473ffffffffffffffffffffffffffffffffffffffff1690506000600460006101000a81548173ffffffffffffffffffffffffffffffffffffffff021916908373ffffffffffffffffffffffffffffffffffffffff16021790555060006003819055508073ffffffffffffffffffffffffffffffffffffffff166108fc670de0b6b3a76400009081150290604051600060405180830381858888f1935050505015801561161f573d6000803e3d6000fd5b5050565b6000600183039050600060029054906101000a900460f81b7effffffffffffffffffffffffffffffffffffffffffffffffffffffffffffff191660018260ff1681546001816001161561010002031660029004811061167e57fe5b81546001161561169d5790600052602060002090602091828204019190065b9054901a7f0100000000000000000000000000000000000000000000000000000000000000027effffffffffffffffffffffffffffffffffffffffffffffffffffffffffffff19161461173b576040517f08c379a000000000000000000000000000000000000000000000000000000000815260040180806020018281038252602d81526020018061231d602d913960400191505060405180910390fd5b8160018260ff1681546001816001161561010002031660029004811061175d57fe5b81546001161561177c5790600052602060002090602091828204019190065b601f036101000a81548160ff021916907f0100000000000000000000000000000000000000000000000000000000000000840402179055507f6c0a018f8a48aaa6e8bfc987d3635d18e996b6379223ab06a25518df9af24f9f600660009054906101000a900473ffffffffffffffffffffffffffffffffffffffff168461180285611b41565b604051808473ffffffffffffffffffffffffffffffffffffffff1681526020018360ff1681526020018260ff168152602001935050505060405180910390a161184a83611bb0565b1561185d57611857611c8a565b506118c9565b611865611d1b565b1561187857611872611e0f565b506118c9565b611880611905565b600660006101000a81548173ffffffffffffffffffffffffffffffffffffffff021916908373ffffffffffffffffffffffffffffffffffffffff16021790555042600881905550505b5050565b60008073ffffffffffffffffffffffffffffffffffffffff168273ffffffffffffffffffffffffffffffffffffffff16149050919050565b6000600460009054906101000a900473ffffffffffffffffffffffffffffffffffffffff1673ffffffffffffffffffffffffffffffffffffffff16600660009054906101000a900473ffffffffffffffffffffffffffffffffffffffff1673ffffffffffffffffffffffffffffffffffffffff1614156119a957600560009054906101000a900473ffffffffffffffffffffffffffffffffffffffff1690506119cf565b600460009054906101000a900473ffffffffffffffffffffffffffffffffffffffff1690505b90565b6000600460006101000a81548173ffffffffffffffffffffffffffffffffffffffff021916908373ffffffffffffffffffffffffffffffffffffffff1602179055506000600560006101000a81548173ffffffffffffffffffffffffffffffffffffffff021916908373ffffffffffffffffffffffffffffffffffffffff1602179055506000600660006101000a81548173ffffffffffffffffffffffffffffffffffffffff021916908373ffffffffffffffffffffffffffffffffffffffff160217905550565b60005b60098160ff161015611b3e57600060029054906101000a900460f81b60018260ff16815460018160011615610100020316600290048110611ada57fe5b815460011615611af95790600052602060002090602091828204019190065b601f036101000a81548160ff021916907f0100000000000000000000000000000000000000000000000000000000000000840402179055508080600101915050611a9d565b50565b60008060009054906101000a900460f81b7effffffffffffffffffffffffffffffffffffffffffffffffffffffffffffff1916827effffffffffffffffffffffffffffffffffffffffffffffffffffffffffffff19161415611ba65760019050611bab565b600290505b919050565b600060058260ff161415611bdc57611bc6611f17565b80611bd55750611bd4611f92565b5b9050611c85565b60018260ff161480611bf1575060038260ff16145b80611bff575060078260ff16145b80611c0d575060098260ff16145b15611c3057611c1a611f17565b80611c295750611c2861200d565b5b9050611c85565b60028260ff161480611c45575060048260ff16145b80611c53575060068260ff16145b80611c61575060088260ff16145b15611c8457611c6e611f92565b80611c7d5750611c7c61200d565b5b9050611c85565b5b919050565b6000600660009054906101000a900473ffffffffffffffffffffffffffffffffffffffff169050611cb96119d2565b611cc1611a9a565b60006003819055508073ffffffffffffffffffffffffffffffffffffffff166108fc6718fae27693b400009081150290604051600060405180830381858888f19350505050158015611d17573d6000803e3d6000fd5b5050565b600080600090505b60098160ff161015611e0657600060029054906101000a900460f81b7effffffffffffffffffffffffffffffffffffffffffffffffffffffffffffff191660018260ff16815460018160011615610100020316600290048110611d8257fe5b815460011615611da15790600052602060002090602091828204019190065b9054901a7f0100000000000000000000000000000000000000000000000000000000000000027effffffffffffffffffffffffffffffffffffffffffffffffffffffffffffff19161415611df9576000915050611e0c565b8080600101915050611d23565b50600190505b90565b6000600460009054906101000a900473ffffffffffffffffffffffffffffffffffffffff1690506000600560009054906101000a900473ffffffffffffffffffffffffffffffffffffffff169050611e656119d2565b611e6d611a9a565b60006003819055508173ffffffffffffffffffffffffffffffffffffffff166108fc670c7d713b49da00009081150290604051600060405180830381858888f19350505050158015611ec3573d6000803e3d6000fd5b508073ffffffffffffffffffffffffffffffffffffffff166108fc670c7d713b49da00009081150290604051600060405180830381858888f19350505050158015611f12573d6000803e3d6000fd5b505050565b6000611f2360016120f2565b8015611f355750611f3460056121b7565b5b8015611f475750611f4660096120f2565b5b80611f7c5750611f5760036120f2565b8015611f695750611f6860056121b7565b5b8015611f7b5750611f7a60076120f2565b5b5b15611f8a5760019050611f8f565b600090505b90565b6000611f9e60026120f2565b8015611fb05750611faf60056121b7565b5b8015611fc25750611fc160086120f2565b5b80611ff75750611fd260046120f2565b8015611fe45750611fe360056121b7565b5b8015611ff65750611ff560066120f2565b5b5b15612005576001905061200a565b600090505b90565b600061201960016120f2565b801561202b575061202a60026121b7565b5b801561203d575061203c60036120f2565b5b80612072575061204d60036120f2565b801561205f575061205e60066121b7565b5b8015612071575061207060096120f2565b5b5b806120a7575061208260076120f2565b8015612094575061209360086121b7565b5b80156120a657506120a560096120f2565b5b5b806120dc57506120b760016120f2565b80156120c957506120c860046121b7565b5b80156120db57506120da60076120f2565b5b5b156120ea57600190506120ef565b600090505b90565b60008060009054906101000a900460f81b7effffffffffffffffffffffffffffffffffffffffffffffffffffffffffffff1916600180840360ff1681546001816001161561010002031660029004811061214857fe5b8154600116156121675790600052602060002090602091828204019190065b9054901a7f0100000000000000000000000000000000000000000000000000000000000000027effffffffffffffffffffffffffffffffffffffffffffffffffffffffffffff1916149050919050565b60008060019054906101000a900460f81b7effffffffffffffffffffffffffffffffffffffffffffffffffffffffffffff1916600180840360ff1681546001816001161561010002031660029004811061220d57fe5b81546001161561222c5790600052602060002090602091828204019190065b9054901a7f0100000000000000000000000000000000000000000000000000000000000000027effffffffffffffffffffffffffffffffffffffffffffffffffffffffffffff191614905091905056fe546869732066756e6374696f6e2063616e206f6e6c792062652063616c6c656420627920746865206f776e65722e596f752063616e6e6f742063616c6c2074686520757232736c6f772066756e6374696f6e20696e20796f7572207475726e2e596f752063616e206f6e6c792075736520746869732066756e6374696f6e206966207468652067616d6520686173206e6f74206265656e20737461727465642e546865206772696420736c6f742073656c656374656420776173206e6f7420616e20656d70747920736c6f742e5468652074696d65207061737365642066726f6d20746865206c61737420757064617465206f66207468652074696d65722c206973206e6f7420656e6f7567687420746f2063616c6c20746869732066756e6374696f6e2e596f752063616e6e6f742063616e63656c207468652067616d652069662074776f206d696e757465732068617665206e6f74207061737365642e596f7520617265206e6f742070617274696369706174696e6720696e207468652063757272656e742067616d652e596f752063616e206e6f742063616e63656c207468652067616d6520696620697420616c726561647920686173206265656e20737461727465642e54686520616d6f756e74206f6620457468657220746f2070617274696369706174652073686f756c6420626520312045746865722ea264697066735822122051609cd89791896f6c890bc82419268fc089ed7386022bd83f3d0fa0aa283ae964736f6c63430007060033",
  "immutableReferences": {},
  "source": "// SPDX-License-Identifier: UNLICENCED\npragma solidity 0.7.6;\n\ncontract CryptoSOS {\n\n    /*\n        * Constants\n    */\n\n    // The game's symbols. Would prefer them as enums but this format is cheaper and easier to implement.\n    byte private SYMBOL_S = \"S\";\n    byte private SYMBOL_O = \"O\";\n    byte private SYMBOL_DASH = \"-\";\n\n    /*\n        * State variables. These variables are saved in the state on the contract.\n        * Every change of these variables costs gas, and so should be done with caution.\n    */\n\n    // The 3x3 grid of the game. It is more efficient to keep it as a byte array and cast it to string when needed externally.\n    bytes private grid;\n\n    address payable private owner;\n    // Used to lock owner's profit while a game is conducted.\n    uint private ownersProfitLocked;\n\n    address payable private firstPlayer;\n    address payable private secondPlayer;\n\n    // The address of the player playing.\n    address payable private playerPlaying;\n\n    // The timestamp of the block, when the first player joined.\n    uint private firstPlayerJoinedTime;\n\n    // The timer for the player move.\n    uint private timer;\n\n    /*\n        *CryptoSOS Events.\n    */\n    event NewGame(address _firstPlayer, address _secondPlayer);\n    event MoveEvent(address _playerAddress, uint8 _placement, uint8 _symbol);\n\n    constructor() {\n        owner = msg.sender;\n        constructGame();\n    }\n\n    /*\n        * The external public API.\n    */\n    function play() external payable checkStateForPlay {\n        address payable playerAddress = msg.sender;\n        // The first player joins the game.\n        if (isEmpty(firstPlayer)) {\n            // Lock the ether of the first player.\n            ownersProfitLocked = 1 ether;\n            // Record the time of the block when the first player joined, needed for the cancel method.\n            firstPlayerJoinedTime = block.timestamp;\n            firstPlayer = playerAddress;\n            // When the first player joins the game, an event that has 0 as the second address is omited.\n            emit NewGame(firstPlayer, address(0));\n        } \n        // The second player joins the game.\n        else if (isEmpty(secondPlayer)) {\n            // Lock another ether for the second player.\n            ownersProfitLocked = ownersProfitLocked + 1 ether;\n            // Initialize the timer of this game.\n            timer = block.timestamp;\n            secondPlayer = playerAddress;\n            // Now both players are present and the game begins.\n            emit NewGame(firstPlayer, secondPlayer);\n            playerPlaying = firstPlayer;\n        }\n        // This case should have been caught by the modifier.\n        // If the code enters this, something has gone really wrong.\n        else {\n            revert (\"Illegal state reached.\");\n        }\n    }\n\n    function placeS(uint8 _placement) external isInTheGame checkStateForPlace(_placement) {\n        place(_placement, SYMBOL_S);\n    }\n\n    function placeO(uint8 _placement) external isInTheGame checkStateForPlace(_placement) {\n        place(_placement, SYMBOL_O);\n    }\n\n    function getGameState() external view returns(string memory grid_) {\n        grid_ = string(grid);\n    }\n    \n    function collectProfit() external isOwner {\n        uint ownersProfit = address(this).balance - ownersProfitLocked;\n        owner.transfer(ownersProfit);\n    }\n\n    function cancel() external isInTheGame checkStateForCancel {\n        address payable firstPlayerTemp = firstPlayer;\n        firstPlayer = address(0);\n        // Unlock the owner's profit.\n        ownersProfitLocked = 0;\n        // Paying should always be the last action!\n        firstPlayerTemp.transfer(1 ether);\n    }\n\n    function ur2slow() external isInTheGame hasGameStarted didTimePassed(60) checkStateForUr2slow {\n        address payable winningPlayerTemp = getPlayerNotPlaying();\n        emit MoveEvent(winningPlayerTemp, 0, 0);\n        clearAddresses();\n        clearBoard();\n        // Unlock the owner's profit.\n        ownersProfitLocked = 0;\n        // Paying should always be the last action!\n        winningPlayerTemp.transfer(1.9 ether);\n    }\n\n    // Because the players can make the game stuck the game by not playing at all, the owner can intervene after 5 minutes.\n    // After calling this method, the players are kicked and the host takes the full ether amount.\n    function gameExpired() external hasGameStarted isOwner didTimePassed(300) {\n        clearAddresses();\n        clearBoard();\n        ownersProfitLocked = 0;\n    }\n\n    /*\n        * Helper Functions.\n    */\n    function place(uint8 _placement, byte  _symbol) internal {\n        uint8 arrayPlacement = _placement - 1;\n        // Check if the input corresponds to an empty grid slot. Revert if not.\n        require(grid[arrayPlacement] == SYMBOL_DASH, \"The grid slot selected was not an empty slot.\");\n        // Make the change to the grid.\n        grid[arrayPlacement] = _symbol;\n        // Emit a move Event.\n        emit MoveEvent(playerPlaying, _placement, convertFromSymbolToNumber(_symbol));\n        // Check if the player won by making the move.\n        if (isWinning(_placement)) {\n            endWin();\n            return;\n        }\n        // Check if the game concluded with a draw.\n        if (isDraw()) {\n            endDraw();\n            return;\n        }\n        // Change the player playing.\n        playerPlaying = getPlayerNotPlaying();\n        // Reset the timer for the next turn.\n        timer = block.timestamp;\n    }\n\n    function isWinning(uint8 _placement) internal view returns (bool won_) {\n        if (_placement == 5) {\n            return checkCross() || checkDiagonals();\n        }\n        if (_placement == 1 || _placement == 3 || _placement == 7 || _placement == 9) {\n            return checkCross() || checkFrame();\n        }\n        if (_placement == 2 || _placement == 4 || _placement == 6 || _placement == 8) {\n            return checkDiagonals() || checkFrame();\n        }\n    }\n\n    function isDraw() internal view returns (bool won_) {\n        for (uint8 i=0; i<9; i++) {\n            if(grid[i] == SYMBOL_DASH) {\n                return false;\n            }\n        }\n        return true;\n    }\n\n    function checkCross() internal view returns (bool won_) {\n        if ((isS(1) && isO(5) && isS(9)) || (isS(3) && isO(5) && isS(7))){\n            return true;\n        }\n        return false;\n    }\n\n    function checkDiagonals() internal view returns (bool won_) {\n        if ((isS(2) && isO(5) && isS(8)) || (isS(4) && isO(5) && isS(6))){\n            return true;\n        }\n        return false;\n    }\n\n    function checkFrame() internal view returns (bool won_) {\n        if ((isS(1) && isO(2) && isS(3)) || (isS(3) && isO(6) && isS(9)) || (isS(7) && isO(8) && isS(9)) || (isS(1) && isO(4) && isS(7))){\n            return true;\n        }\n        return false;\n    }\n\n    function endWin() internal {\n        address payable winningPlayerTemp = playerPlaying;\n        clearAddresses();\n        clearBoard();\n        // Unlock the owner's profit.\n        ownersProfitLocked = 0;\n        // Paying should always be the last action!\n        winningPlayerTemp.transfer(1.8 ether);\n    }\n\n    function endDraw() internal {\n        address payable firstPlayerTemp = firstPlayer;\n        address payable secondPlayerTemp = secondPlayer;\n        clearAddresses();\n        clearBoard();\n        // Unlock the owner's profit.\n        ownersProfitLocked = 0;\n        // Paying should always be the last action!\n        firstPlayerTemp.transfer(0.9 ether);\n        secondPlayerTemp.transfer(0.9 ether);\n    }\n\n    function constructGame() internal {\n        grid = new bytes(9);\n        clearBoard();\n    }\n\n    function clearAddresses() internal {\n        firstPlayer = address(0);\n        secondPlayer = address(0);\n        playerPlaying = address(0);\n    }\n\n    function clearBoard() internal {\n        for (uint8 i=0; i<9; i++) {\n            grid[i] = SYMBOL_DASH;\n        }\n    }\n\n    function getPlayerNotPlaying() internal view returns (address payable player_) {\n        if (playerPlaying == firstPlayer) {\n            return secondPlayer;\n        }\n        return firstPlayer;\n    }\n\n    /*\n        *Function specific modifiers\n    */\n\n    // Checks if the play function can be called for the specific caller.\n    modifier checkStateForPlay() {\n        // Check if there is an available slot.\n        require(isEmpty(firstPlayer) || isEmpty(secondPlayer), \"The game has already started.\");\n        // Check if the player has already queued as first player.\n        require(msg.sender != firstPlayer, \"You have already queued to play.\");\n        // Exacly one Ether ether is required to play, in all other cases, the function call will be reverted.\n        require(msg.value == 1 ether, \"The amount of Ether to participate should be 1 Ether.\");\n        _;\n    }\n\n    // Checks if the place functions can be called for the specific user, for the specific state of the game.\n    modifier checkStateForPlace(uint8 _placement) {\n        // Checks if it is this player's turn to play.\n        require(msg.sender == playerPlaying, \"It is not your turn to play.\");\n        // Checks if the input is out of bounce.\n        require(_placement > 0 && _placement < 10, \"The input given is not valid.\");\n        _;\n    }\n\n    modifier checkStateForCancel() {\n        // Checks if the game has been started, that is when both players have joined.\n        require(isEmpty(secondPlayer), \"You can not cancel the game if it already has been started.\");\n        // Checks if two minutes have been passed.\n        require(block.timestamp - firstPlayerJoinedTime > 120, \"You cannot cancel the game if two minutes have not passed.\");\n        _;\n    }\n\n    modifier checkStateForUr2slow() {\n        // A player cannot call this function if it is his turn.\n        require(msg.sender != playerPlaying, \"You cannot call the ur2slow function in your turn.\");\n        _;\n    }\n\n    // Checks if the game has not been started, that is when both players have not joined.\n    modifier hasGameStarted() {\n        require(!isEmpty(secondPlayer), \"You can only use this function if the game has not been started.\");\n        _;\n    }\n\n    /*\n        *General purpose modifiers\n    */\n\n    // Checks if the caller is participating in the current game.\n    modifier isInTheGame() {\n        // Check if there is an available slot.\n        require(msg.sender == firstPlayer || msg.sender == secondPlayer, \"You are not participating in the current game.\");\n        _;\n    }\n\n    // Checks if caller is the owner.\n    modifier isOwner() {\n        require(msg.sender == owner, \"This function can only be called by the owner.\");\n        _;\n    }\n\n    // Checks if a certain amount of time has passed from the last update of the timer.\n    modifier didTimePassed(uint _timePassed) {\n        require(block.timestamp - timer > _timePassed, string(abi.encodePacked(\"The time passed from the last update of the timer, is not enought to call this function.\")));\n        _;\n    }\n\n    /*\n        *Utility Functions.\n    */\n    function isEmpty(address _addressToCheck) internal pure returns (bool isEmpty_) {\n        isEmpty_ =  _addressToCheck == address(0);\n    }\n\n    function isS(uint8 _placement) internal view returns (bool isS_) {\n        isS_ = grid[_placement-1] == SYMBOL_S;\n    }\n\n    function isO(uint8 _placement) internal view returns (bool isO_) {\n        isO_ = grid[_placement-1] == SYMBOL_O;\n    }\n\n    function convertFromSymbolToNumber(byte _symbol) internal view returns (uint8) {\n        if (_symbol == SYMBOL_S) {\n            return 1;\n        }\n        return 2;\n    }\n}",
  "sourcePath": "D:/repositories/aueb/crypto-sos/src/contracts/CryptoSOS.sol",
  "compiler": {
    "name": "solc",
    "version": "0.7.6+commit.7338295f.Emscripten.clang"
  },
  "schemaVersion": "3.3.2",
  "updatedAt": "2021-01-17T20:57:37.163Z",
  "networkType": "ethereum",
  "devdoc": {
    "kind": "dev",
    "methods": {},
    "version": 1
  },
  "userdoc": {
    "kind": "user",
    "methods": {},
    "version": 1
  }
}