{
  "contractName": "MultySOS",
  "abi": [
    {
      "inputs": [],
      "stateMutability": "nonpayable",
      "type": "constructor"
    },
    {
      "anonymous": false,
      "inputs": [
        {
          "indexed": false,
          "internalType": "uint32",
          "name": "_gameID",
          "type": "uint32"
        },
        {
          "indexed": false,
          "internalType": "address",
          "name": "_playerAddress",
          "type": "address"
        },
        {
          "indexed": false,
          "internalType": "uint8",
          "name": "_placement",
          "type": "uint8"
        },
        {
          "indexed": false,
          "internalType": "uint8",
          "name": "_symbol",
          "type": "uint8"
        }
      ],
      "name": "MoveEvent",
      "type": "event"
    },
    {
      "anonymous": false,
      "inputs": [
        {
          "indexed": false,
          "internalType": "uint32",
          "name": "_gameID",
          "type": "uint32"
        },
        {
          "indexed": false,
          "internalType": "address",
          "name": "_firstPlayer",
          "type": "address"
        },
        {
          "indexed": false,
          "internalType": "address",
          "name": "_secondPlayer",
          "type": "address"
        }
      ],
      "name": "NewGame",
      "type": "event"
    },
    {
      "inputs": [],
      "name": "play",
      "outputs": [],
      "stateMutability": "payable",
      "type": "function",
      "payable": true
    },
    {
      "inputs": [
        {
          "internalType": "uint32",
          "name": "_gameID",
          "type": "uint32"
        },
        {
          "internalType": "uint8",
          "name": "_placement",
          "type": "uint8"
        }
      ],
      "name": "placeS",
      "outputs": [],
      "stateMutability": "nonpayable",
      "type": "function"
    },
    {
      "inputs": [
        {
          "internalType": "uint32",
          "name": "_gameID",
          "type": "uint32"
        },
        {
          "internalType": "uint8",
          "name": "_placement",
          "type": "uint8"
        }
      ],
      "name": "placeO",
      "outputs": [],
      "stateMutability": "nonpayable",
      "type": "function"
    },
    {
      "inputs": [
        {
          "internalType": "uint32",
          "name": "_gameID",
          "type": "uint32"
        }
      ],
      "name": "getGameState",
      "outputs": [
        {
          "internalType": "string",
          "name": "grid_",
          "type": "string"
        }
      ],
      "stateMutability": "view",
      "type": "function",
      "constant": true
    },
    {
      "inputs": [],
      "name": "collectProfit",
      "outputs": [],
      "stateMutability": "nonpayable",
      "type": "function"
    },
    {
      "inputs": [
        {
          "internalType": "uint32",
          "name": "_gameID",
          "type": "uint32"
        }
      ],
      "name": "cancel",
      "outputs": [],
      "stateMutability": "nonpayable",
      "type": "function"
    },
    {
      "inputs": [
        {
          "internalType": "uint32",
          "name": "_gameID",
          "type": "uint32"
        }
      ],
      "name": "ur2slow",
      "outputs": [],
      "stateMutability": "nonpayable",
      "type": "function"
    }
  ],
  "bytecode": "0x60806040527f53000000000000000000000000000000000000000000000000000000000000006000806101000a81548160ff021916908360f81c02179055507f4f00000000000000000000000000000000000000000000000000000000000000600060016101000a81548160ff021916908360f81c02179055507f2d00000000000000000000000000000000000000000000000000000000000000600060026101000a81548160ff021916908360f81c02179055506001600260006101000a81548163ffffffff021916908363ffffffff1602179055503480156100e257600080fd5b5033600060036101000a81548173ffffffffffffffffffffffffffffffffffffffff021916908373ffffffffffffffffffffffffffffffffffffffff160217905550614e64806101336000396000f3fe6080604052600436106100705760003560e01c806362b24ec11161004e57806362b24ec11461010457806393e84cd91461012d578063c7faa88d14610137578063e397280b1461014e57610070565b806311bb59b3146100755780631381e400146100b257806356ef3ee9146100db575b600080fd5b34801561008157600080fd5b5061009c600480360381019061009791906144b6565b610177565b6040516100a99190614a98565b60405180910390f35b3480156100be57600080fd5b506100d960048036038101906100d491906144b6565b610471565b005b3480156100e757600080fd5b5061010260048036038101906100fd91906144b6565b610ede565b005b34801561011057600080fd5b5061012b600480360381019061012691906144df565b611bea565b005b610135612385565b005b34801561014357600080fd5b5061014c6124d3565b005b34801561015a57600080fd5b50610175600480360381019061017091906144df565b6125d8565b005b6060816000600360008363ffffffff1663ffffffff1681526020019081526020016000206040518060c0016040529081600082018054600181600116156101000203166002900480601f01602080910402602001604051908101604052809291908181526020018280546001816001161561010002031660029004801561023f5780601f106102145761010080835404028352916020019161023f565b820191906000526020600020905b81548152906001019060200180831161022257829003601f168201915b505050505081526020016001820160009054906101000a900473ffffffffffffffffffffffffffffffffffffffff1673ffffffffffffffffffffffffffffffffffffffff1673ffffffffffffffffffffffffffffffffffffffff1681526020016002820160009054906101000a900473ffffffffffffffffffffffffffffffffffffffff1673ffffffffffffffffffffffffffffffffffffffff1673ffffffffffffffffffffffffffffffffffffffff1681526020016003820160009054906101000a900473ffffffffffffffffffffffffffffffffffffffff1673ffffffffffffffffffffffffffffffffffffffff1673ffffffffffffffffffffffffffffffffffffffff16815260200160048201548152602001600582015481525050905061036d8160200151612d71565b156103ad576040517f08c379a00000000000000000000000000000000000000000000000000000000081526004016103a490614b7a565b60405180910390fd5b600360008563ffffffff1663ffffffff1681526020019081526020016000206000018054600181600116156101000203166002900480601f0160208091040260200160405190810160405280929190818152602001828054600181600116156101000203166002900480156104635780601f1061043857610100808354040283529160200191610463565b820191906000526020600020905b81548152906001019060200180831161044657829003601f168201915b505050505092505050919050565b806000600360008363ffffffff1663ffffffff1681526020019081526020016000206040518060c0016040529081600082018054600181600116156101000203166002900480601f0160208091040260200160405190810160405280929190818152602001828054600181600116156101000203166002900480156105375780601f1061050c57610100808354040283529160200191610537565b820191906000526020600020905b81548152906001019060200180831161051a57829003601f168201915b505050505081526020016001820160009054906101000a900473ffffffffffffffffffffffffffffffffffffffff1673ffffffffffffffffffffffffffffffffffffffff1673ffffffffffffffffffffffffffffffffffffffff1681526020016002820160009054906101000a900473ffffffffffffffffffffffffffffffffffffffff1673ffffffffffffffffffffffffffffffffffffffff1673ffffffffffffffffffffffffffffffffffffffff1681526020016003820160009054906101000a900473ffffffffffffffffffffffffffffffffffffffff1673ffffffffffffffffffffffffffffffffffffffff1673ffffffffffffffffffffffffffffffffffffffff1681526020016004820154815260200160058201548152505090506106658160200151612d71565b156106a5576040517f08c379a000000000000000000000000000000000000000000000000000000000815260040161069c90614b7a565b60405180910390fd5b826000600360008363ffffffff1663ffffffff1681526020019081526020016000206040518060c0016040529081600082018054600181600116156101000203166002900480601f01602080910402602001604051908101604052809291908181526020018280546001816001161561010002031660029004801561076b5780601f106107405761010080835404028352916020019161076b565b820191906000526020600020905b81548152906001019060200180831161074e57829003601f168201915b505050505081526020016001820160009054906101000a900473ffffffffffffffffffffffffffffffffffffffff1673ffffffffffffffffffffffffffffffffffffffff1673ffffffffffffffffffffffffffffffffffffffff1681526020016002820160009054906101000a900473ffffffffffffffffffffffffffffffffffffffff1673ffffffffffffffffffffffffffffffffffffffff1673ffffffffffffffffffffffffffffffffffffffff1681526020016003820160009054906101000a900473ffffffffffffffffffffffffffffffffffffffff1673ffffffffffffffffffffffffffffffffffffffff1673ffffffffffffffffffffffffffffffffffffffff168152602001600482015481526020016005820154815250509050806020015173ffffffffffffffffffffffffffffffffffffffff163373ffffffffffffffffffffffffffffffffffffffff1614806108f95750806040015173ffffffffffffffffffffffffffffffffffffffff163373ffffffffffffffffffffffffffffffffffffffff16145b610938576040517f08c379a000000000000000000000000000000000000000000000000000000000815260040161092f90614ada565b60405180910390fd5b846000600360008363ffffffff1663ffffffff1681526020019081526020016000206040518060c0016040529081600082018054600181600116156101000203166002900480601f0160208091040260200160405190810160405280929190818152602001828054600181600116156101000203166002900480156109fe5780601f106109d3576101008083540402835291602001916109fe565b820191906000526020600020905b8154815290600101906020018083116109e157829003601f168201915b505050505081526020016001820160009054906101000a900473ffffffffffffffffffffffffffffffffffffffff1673ffffffffffffffffffffffffffffffffffffffff1673ffffffffffffffffffffffffffffffffffffffff1681526020016002820160009054906101000a900473ffffffffffffffffffffffffffffffffffffffff1673ffffffffffffffffffffffffffffffffffffffff1673ffffffffffffffffffffffffffffffffffffffff1681526020016003820160009054906101000a900473ffffffffffffffffffffffffffffffffffffffff1673ffffffffffffffffffffffffffffffffffffffff1673ffffffffffffffffffffffffffffffffffffffff168152602001600482015481526020016005820154815250509050610b2c8160400151612d71565b610b6b576040517f08c379a0000000000000000000000000000000000000000000000000000000008152600401610b6290614bfa565b60405180910390fd5b60788160800151420311610bb4576040517f08c379a0000000000000000000000000000000000000000000000000000000008152600401610bab90614bba565b60405180910390fd5b6000600360008963ffffffff1663ffffffff1681526020019081526020016000206040518060c0016040529081600082018054600181600116156101000203166002900480601f016020809104026020016040519081016040528092919081815260200182805460018160011615610100020316600290048015610c795780601f10610c4e57610100808354040283529160200191610c79565b820191906000526020600020905b815481529060010190602001808311610c5c57829003601f168201915b505050505081526020016001820160009054906101000a900473ffffffffffffffffffffffffffffffffffffffff1673ffffffffffffffffffffffffffffffffffffffff1673ffffffffffffffffffffffffffffffffffffffff1681526020016002820160009054906101000a900473ffffffffffffffffffffffffffffffffffffffff1673ffffffffffffffffffffffffffffffffffffffff1673ffffffffffffffffffffffffffffffffffffffff1681526020016003820160009054906101000a900473ffffffffffffffffffffffffffffffffffffffff1673ffffffffffffffffffffffffffffffffffffffff1673ffffffffffffffffffffffffffffffffffffffff1681526020016004820154815260200160058201548152505090506000816020015190506000600260046101000a81548163ffffffff021916908363ffffffff160217905550600360008a63ffffffff1663ffffffff16815260200190815260200160002060008082016000610df59190614321565b6001820160006101000a81549073ffffffffffffffffffffffffffffffffffffffff02191690556002820160006101000a81549073ffffffffffffffffffffffffffffffffffffffff02191690556003820160006101000a81549073ffffffffffffffffffffffffffffffffffffffff0219169055600482016000905560058201600090555050610e84612da9565b8073ffffffffffffffffffffffffffffffffffffffff166108fc670de0b6b3a76400009081150290604051600060405180830381858888f19350505050158015610ed2573d6000803e3d6000fd5b50505050505050505050565b806000600360008363ffffffff1663ffffffff1681526020019081526020016000206040518060c0016040529081600082018054600181600116156101000203166002900480601f016020809104026020016040519081016040528092919081815260200182805460018160011615610100020316600290048015610fa45780601f10610f7957610100808354040283529160200191610fa4565b820191906000526020600020905b815481529060010190602001808311610f8757829003601f168201915b505050505081526020016001820160009054906101000a900473ffffffffffffffffffffffffffffffffffffffff1673ffffffffffffffffffffffffffffffffffffffff1673ffffffffffffffffffffffffffffffffffffffff1681526020016002820160009054906101000a900473ffffffffffffffffffffffffffffffffffffffff1673ffffffffffffffffffffffffffffffffffffffff1673ffffffffffffffffffffffffffffffffffffffff1681526020016003820160009054906101000a900473ffffffffffffffffffffffffffffffffffffffff1673ffffffffffffffffffffffffffffffffffffffff1673ffffffffffffffffffffffffffffffffffffffff1681526020016004820154815260200160058201548152505090506110d28160200151612d71565b15611112576040517f08c379a000000000000000000000000000000000000000000000000000000000815260040161110990614b7a565b60405180910390fd5b826000600360008363ffffffff1663ffffffff1681526020019081526020016000206040518060c0016040529081600082018054600181600116156101000203166002900480601f0160208091040260200160405190810160405280929190818152602001828054600181600116156101000203166002900480156111d85780601f106111ad576101008083540402835291602001916111d8565b820191906000526020600020905b8154815290600101906020018083116111bb57829003601f168201915b505050505081526020016001820160009054906101000a900473ffffffffffffffffffffffffffffffffffffffff1673ffffffffffffffffffffffffffffffffffffffff1673ffffffffffffffffffffffffffffffffffffffff1681526020016002820160009054906101000a900473ffffffffffffffffffffffffffffffffffffffff1673ffffffffffffffffffffffffffffffffffffffff1673ffffffffffffffffffffffffffffffffffffffff1681526020016003820160009054906101000a900473ffffffffffffffffffffffffffffffffffffffff1673ffffffffffffffffffffffffffffffffffffffff1673ffffffffffffffffffffffffffffffffffffffff168152602001600482015481526020016005820154815250509050806020015173ffffffffffffffffffffffffffffffffffffffff163373ffffffffffffffffffffffffffffffffffffffff1614806113665750806040015173ffffffffffffffffffffffffffffffffffffffff163373ffffffffffffffffffffffffffffffffffffffff16145b6113a5576040517f08c379a000000000000000000000000000000000000000000000000000000000815260040161139c90614ada565b60405180910390fd5b846000600360008363ffffffff1663ffffffff1681526020019081526020016000206040518060c0016040529081600082018054600181600116156101000203166002900480601f01602080910402602001604051908101604052809291908181526020018280546001816001161561010002031660029004801561146b5780601f106114405761010080835404028352916020019161146b565b820191906000526020600020905b81548152906001019060200180831161144e57829003601f168201915b505050505081526020016001820160009054906101000a900473ffffffffffffffffffffffffffffffffffffffff1673ffffffffffffffffffffffffffffffffffffffff1673ffffffffffffffffffffffffffffffffffffffff1681526020016002820160009054906101000a900473ffffffffffffffffffffffffffffffffffffffff1673ffffffffffffffffffffffffffffffffffffffff1673ffffffffffffffffffffffffffffffffffffffff1681526020016003820160009054906101000a900473ffffffffffffffffffffffffffffffffffffffff1673ffffffffffffffffffffffffffffffffffffffff1673ffffffffffffffffffffffffffffffffffffffff168152602001600482015481526020016005820154815250509050806060015173ffffffffffffffffffffffffffffffffffffffff163373ffffffffffffffffffffffffffffffffffffffff1614156115ff576040517f08c379a00000000000000000000000000000000000000000000000000000000081526004016115f690614c3a565b60405180910390fd5b866000600360008363ffffffff1663ffffffff1681526020019081526020016000206040518060c0016040529081600082018054600181600116156101000203166002900480601f0160208091040260200160405190810160405280929190818152602001828054600181600116156101000203166002900480156116c55780601f1061169a576101008083540402835291602001916116c5565b820191906000526020600020905b8154815290600101906020018083116116a857829003601f168201915b505050505081526020016001820160009054906101000a900473ffffffffffffffffffffffffffffffffffffffff1673ffffffffffffffffffffffffffffffffffffffff1673ffffffffffffffffffffffffffffffffffffffff1681526020016002820160009054906101000a900473ffffffffffffffffffffffffffffffffffffffff1673ffffffffffffffffffffffffffffffffffffffff1673ffffffffffffffffffffffffffffffffffffffff1681526020016003820160009054906101000a900473ffffffffffffffffffffffffffffffffffffffff1673ffffffffffffffffffffffffffffffffffffffff1673ffffffffffffffffffffffffffffffffffffffff1681526020016004820154815260200160058201548152505090506117f38160400151612d71565b15611833576040517f08c379a000000000000000000000000000000000000000000000000000000000815260040161182a90614afa565b60405180910390fd5b88603c80600360008463ffffffff1663ffffffff1681526020019081526020016000206005015442031161189c576040517f08c379a000000000000000000000000000000000000000000000000000000000815260040161189390614b9a565b60405180910390fd5b6000600360008d63ffffffff1663ffffffff1681526020019081526020016000206040518060c0016040529081600082018054600181600116156101000203166002900480601f0160208091040260200160405190810160405280929190818152602001828054600181600116156101000203166002900480156119615780601f1061193657610100808354040283529160200191611961565b820191906000526020600020905b81548152906001019060200180831161194457829003601f168201915b505050505081526020016001820160009054906101000a900473ffffffffffffffffffffffffffffffffffffffff1673ffffffffffffffffffffffffffffffffffffffff1673ffffffffffffffffffffffffffffffffffffffff1681526020016002820160009054906101000a900473ffffffffffffffffffffffffffffffffffffffff1673ffffffffffffffffffffffffffffffffffffffff1673ffffffffffffffffffffffffffffffffffffffff1681526020016003820160009054906101000a900473ffffffffffffffffffffffffffffffffffffffff1673ffffffffffffffffffffffffffffffffffffffff1673ffffffffffffffffffffffffffffffffffffffff1681526020016004820154815260200160058201548152505090506000611a8d82612dbe565b90507f6f86676a0daea228c34e0243594da9e4d01b0019d84b4f3a4917ca8fcb1fbc2b8d82600080604051611ac59493929190614c91565b60405180910390a1600360008e63ffffffff1663ffffffff16815260200190815260200160002060008082016000611afd9190614321565b6001820160006101000a81549073ffffffffffffffffffffffffffffffffffffffff02191690556002820160006101000a81549073ffffffffffffffffffffffffffffffffffffffff02191690556003820160006101000a81549073ffffffffffffffffffffffffffffffffffffffff021916905560048201600090556005820160009055505060006001819055508073ffffffffffffffffffffffffffffffffffffffff166108fc671a5e27eef13e00009081150290604051600060405180830381858888f19350505050158015611bda573d6000803e3d6000fd5b5050505050505050505050505050565b816000600360008363ffffffff1663ffffffff1681526020019081526020016000206040518060c0016040529081600082018054600181600116156101000203166002900480601f016020809104026020016040519081016040528092919081815260200182805460018160011615610100020316600290048015611cb05780601f10611c8557610100808354040283529160200191611cb0565b820191906000526020600020905b815481529060010190602001808311611c9357829003601f168201915b505050505081526020016001820160009054906101000a900473ffffffffffffffffffffffffffffffffffffffff1673ffffffffffffffffffffffffffffffffffffffff1673ffffffffffffffffffffffffffffffffffffffff1681526020016002820160009054906101000a900473ffffffffffffffffffffffffffffffffffffffff1673ffffffffffffffffffffffffffffffffffffffff1673ffffffffffffffffffffffffffffffffffffffff1681526020016003820160009054906101000a900473ffffffffffffffffffffffffffffffffffffffff1673ffffffffffffffffffffffffffffffffffffffff1673ffffffffffffffffffffffffffffffffffffffff168152602001600482015481526020016005820154815250509050611dde8160200151612d71565b15611e1e576040517f08c379a0000000000000000000000000000000000000000000000000000000008152600401611e1590614b7a565b60405180910390fd5b836000600360008363ffffffff1663ffffffff1681526020019081526020016000206040518060c0016040529081600082018054600181600116156101000203166002900480601f016020809104026020016040519081016040528092919081815260200182805460018160011615610100020316600290048015611ee45780601f10611eb957610100808354040283529160200191611ee4565b820191906000526020600020905b815481529060010190602001808311611ec757829003601f168201915b505050505081526020016001820160009054906101000a900473ffffffffffffffffffffffffffffffffffffffff1673ffffffffffffffffffffffffffffffffffffffff1673ffffffffffffffffffffffffffffffffffffffff1681526020016002820160009054906101000a900473ffffffffffffffffffffffffffffffffffffffff1673ffffffffffffffffffffffffffffffffffffffff1673ffffffffffffffffffffffffffffffffffffffff1681526020016003820160009054906101000a900473ffffffffffffffffffffffffffffffffffffffff1673ffffffffffffffffffffffffffffffffffffffff1673ffffffffffffffffffffffffffffffffffffffff168152602001600482015481526020016005820154815250509050806020015173ffffffffffffffffffffffffffffffffffffffff163373ffffffffffffffffffffffffffffffffffffffff1614806120725750806040015173ffffffffffffffffffffffffffffffffffffffff163373ffffffffffffffffffffffffffffffffffffffff16145b6120b1576040517f08c379a00000000000000000000000000000000000000000000000000000000081526004016120a890614ada565b60405180910390fd5b85856000600360008463ffffffff1663ffffffff1681526020019081526020016000206040518060c0016040529081600082018054600181600116156101000203166002900480601f0160208091040260200160405190810160405280929190818152602001828054600181600116156101000203166002900480156121785780601f1061214d57610100808354040283529160200191612178565b820191906000526020600020905b81548152906001019060200180831161215b57829003601f168201915b505050505081526020016001820160009054906101000a900473ffffffffffffffffffffffffffffffffffffffff1673ffffffffffffffffffffffffffffffffffffffff1673ffffffffffffffffffffffffffffffffffffffff1681526020016002820160009054906101000a900473ffffffffffffffffffffffffffffffffffffffff1673ffffffffffffffffffffffffffffffffffffffff1673ffffffffffffffffffffffffffffffffffffffff1681526020016003820160009054906101000a900473ffffffffffffffffffffffffffffffffffffffff1673ffffffffffffffffffffffffffffffffffffffff1673ffffffffffffffffffffffffffffffffffffffff168152602001600482015481526020016005820154815250509050806060015173ffffffffffffffffffffffffffffffffffffffff163373ffffffffffffffffffffffffffffffffffffffff161461230b576040517f08c379a000000000000000000000000000000000000000000000000000000000815260040161230290614b3a565b60405180910390fd5b60008260ff161180156123215750600a8260ff16105b612360576040517f08c379a000000000000000000000000000000000000000000000000000000000815260040161235790614bda565b60405180910390fd5b61237a8989600060019054906101000a900460f81b612e15565b505050505050505050565b3373ffffffffffffffffffffffffffffffffffffffff1660036000600260049054906101000a900463ffffffff1663ffffffff1663ffffffff16815260200190815260200160002060010160009054906101000a900473ffffffffffffffffffffffffffffffffffffffff1673ffffffffffffffffffffffffffffffffffffffff161415612448576040517f08c379a000000000000000000000000000000000000000000000000000000000815260040161243f90614b1a565b60405180910390fd5b670de0b6b3a76400003414612492576040517f08c379a000000000000000000000000000000000000000000000000000000000815260040161248990614c1a565b60405180910390fd5b60003390506000600260049054906101000a900463ffffffff1663ffffffff1614156124c6576124c181613602565b6124d0565b6124cf8161383f565b5b50565b600060039054906101000a900473ffffffffffffffffffffffffffffffffffffffff1673ffffffffffffffffffffffffffffffffffffffff163373ffffffffffffffffffffffffffffffffffffffff1614612563576040517f08c379a000000000000000000000000000000000000000000000000000000000815260040161255a90614aba565b60405180910390fd5b600060015447039050600060039054906101000a900473ffffffffffffffffffffffffffffffffffffffff1673ffffffffffffffffffffffffffffffffffffffff166108fc829081150290604051600060405180830381858888f193505050501580156125d4573d6000803e3d6000fd5b5050565b816000600360008363ffffffff1663ffffffff1681526020019081526020016000206040518060c0016040529081600082018054600181600116156101000203166002900480601f01602080910402602001604051908101604052809291908181526020018280546001816001161561010002031660029004801561269e5780601f106126735761010080835404028352916020019161269e565b820191906000526020600020905b81548152906001019060200180831161268157829003601f168201915b505050505081526020016001820160009054906101000a900473ffffffffffffffffffffffffffffffffffffffff1673ffffffffffffffffffffffffffffffffffffffff1673ffffffffffffffffffffffffffffffffffffffff1681526020016002820160009054906101000a900473ffffffffffffffffffffffffffffffffffffffff1673ffffffffffffffffffffffffffffffffffffffff1673ffffffffffffffffffffffffffffffffffffffff1681526020016003820160009054906101000a900473ffffffffffffffffffffffffffffffffffffffff1673ffffffffffffffffffffffffffffffffffffffff1673ffffffffffffffffffffffffffffffffffffffff1681526020016004820154815260200160058201548152505090506127cc8160200151612d71565b1561280c576040517f08c379a000000000000000000000000000000000000000000000000000000000815260040161280390614b7a565b60405180910390fd5b836000600360008363ffffffff1663ffffffff1681526020019081526020016000206040518060c0016040529081600082018054600181600116156101000203166002900480601f0160208091040260200160405190810160405280929190818152602001828054600181600116156101000203166002900480156128d25780601f106128a7576101008083540402835291602001916128d2565b820191906000526020600020905b8154815290600101906020018083116128b557829003601f168201915b505050505081526020016001820160009054906101000a900473ffffffffffffffffffffffffffffffffffffffff1673ffffffffffffffffffffffffffffffffffffffff1673ffffffffffffffffffffffffffffffffffffffff1681526020016002820160009054906101000a900473ffffffffffffffffffffffffffffffffffffffff1673ffffffffffffffffffffffffffffffffffffffff1673ffffffffffffffffffffffffffffffffffffffff1681526020016003820160009054906101000a900473ffffffffffffffffffffffffffffffffffffffff1673ffffffffffffffffffffffffffffffffffffffff1673ffffffffffffffffffffffffffffffffffffffff168152602001600482015481526020016005820154815250509050806020015173ffffffffffffffffffffffffffffffffffffffff163373ffffffffffffffffffffffffffffffffffffffff161480612a605750806040015173ffffffffffffffffffffffffffffffffffffffff163373ffffffffffffffffffffffffffffffffffffffff16145b612a9f576040517f08c379a0000000000000000000000000000000000000000000000000000000008152600401612a9690614ada565b60405180910390fd5b85856000600360008463ffffffff1663ffffffff1681526020019081526020016000206040518060c0016040529081600082018054600181600116156101000203166002900480601f016020809104026020016040519081016040528092919081815260200182805460018160011615610100020316600290048015612b665780601f10612b3b57610100808354040283529160200191612b66565b820191906000526020600020905b815481529060010190602001808311612b4957829003601f168201915b505050505081526020016001820160009054906101000a900473ffffffffffffffffffffffffffffffffffffffff1673ffffffffffffffffffffffffffffffffffffffff1673ffffffffffffffffffffffffffffffffffffffff1681526020016002820160009054906101000a900473ffffffffffffffffffffffffffffffffffffffff1673ffffffffffffffffffffffffffffffffffffffff1673ffffffffffffffffffffffffffffffffffffffff1681526020016003820160009054906101000a900473ffffffffffffffffffffffffffffffffffffffff1673ffffffffffffffffffffffffffffffffffffffff1673ffffffffffffffffffffffffffffffffffffffff168152602001600482015481526020016005820154815250509050806060015173ffffffffffffffffffffffffffffffffffffffff163373ffffffffffffffffffffffffffffffffffffffff1614612cf9576040517f08c379a0000000000000000000000000000000000000000000000000000000008152600401612cf090614b3a565b60405180910390fd5b60008260ff16118015612d0f5750600a8260ff16105b612d4e576040517f08c379a0000000000000000000000000000000000000000000000000000000008152600401612d4590614bda565b60405180910390fd5b612d66898960008054906101000a900460f81b612e15565b505050505050505050565b60008073ffffffffffffffffffffffffffffffffffffffff168273ffffffffffffffffffffffffffffffffffffffff16149050919050565b671bc16d674ec8000060015403600181905550565b6000816020015173ffffffffffffffffffffffffffffffffffffffff16826060015173ffffffffffffffffffffffffffffffffffffffff161415612e085781604001519050612e10565b816020015190505b919050565b6000600360008563ffffffff1663ffffffff16815260200190815260200160002090506000600184039050600060029054906101000a900460f81b7effffffffffffffffffffffffffffffffffffffffffffffffffffffffffffff1916826000018260ff16815460018160011615610100020316600290048110612e9557fe5b815460011615612eb45790600052602060002090602091828204019190065b9054901a7f0100000000000000000000000000000000000000000000000000000000000000027effffffffffffffffffffffffffffffffffffffffffffffffffffffffffffff191614612f3c576040517f08c379a0000000000000000000000000000000000000000000000000000000008152600401612f3390614b5a565b60405180910390fd5b82826000018260ff16815460018160011615610100020316600290048110612f6057fe5b815460011615612f7f5790600052602060002090602091828204019190065b601f036101000a81548160ff021916907f0100000000000000000000000000000000000000000000000000000000000000840402179055507f6f86676a0daea228c34e0243594da9e4d01b0019d84b4f3a4917ca8fcb1fbc2b858360030160009054906101000a900473ffffffffffffffffffffffffffffffffffffffff1686613008876139d2565b6040516130189493929190614cd6565b60405180910390a16131ed826040518060c0016040529081600082018054600181600116156101000203166002900480601f0160208091040260200160405190810160405280929190818152602001828054600181600116156101000203166002900480156130c85780601f1061309d576101008083540402835291602001916130c8565b820191906000526020600020905b8154815290600101906020018083116130ab57829003601f168201915b505050505081526020016001820160009054906101000a900473ffffffffffffffffffffffffffffffffffffffff1673ffffffffffffffffffffffffffffffffffffffff1673ffffffffffffffffffffffffffffffffffffffff1681526020016002820160009054906101000a900473ffffffffffffffffffffffffffffffffffffffff1673ffffffffffffffffffffffffffffffffffffffff1673ffffffffffffffffffffffffffffffffffffffff1681526020016003820160009054906101000a900473ffffffffffffffffffffffffffffffffffffffff1673ffffffffffffffffffffffffffffffffffffffff1673ffffffffffffffffffffffffffffffffffffffff1681526020016004820154815260200160058201548152505085613a41565b15613202576131fb85613b22565b50506135fd565b6133ce826040518060c0016040529081600082018054600181600116156101000203166002900480601f0160208091040260200160405190810160405280929190818152602001828054600181600116156101000203166002900480156132aa5780601f1061327f576101008083540402835291602001916132aa565b820191906000526020600020905b81548152906001019060200180831161328d57829003601f168201915b505050505081526020016001820160009054906101000a900473ffffffffffffffffffffffffffffffffffffffff1673ffffffffffffffffffffffffffffffffffffffff1673ffffffffffffffffffffffffffffffffffffffff1681526020016002820160009054906101000a900473ffffffffffffffffffffffffffffffffffffffff1673ffffffffffffffffffffffffffffffffffffffff1673ffffffffffffffffffffffffffffffffffffffff1681526020016003820160009054906101000a900473ffffffffffffffffffffffffffffffffffffffff1673ffffffffffffffffffffffffffffffffffffffff1673ffffffffffffffffffffffffffffffffffffffff16815260200160048201548152602001600582015481525050613c7b565b156133e3576133dc85613d29565b50506135fd565b6135af826040518060c0016040529081600082018054600181600116156101000203166002900480601f01602080910402602001604051908101604052809291908181526020018280546001816001161561010002031660029004801561348b5780601f106134605761010080835404028352916020019161348b565b820191906000526020600020905b81548152906001019060200180831161346e57829003601f168201915b505050505081526020016001820160009054906101000a900473ffffffffffffffffffffffffffffffffffffffff1673ffffffffffffffffffffffffffffffffffffffff1673ffffffffffffffffffffffffffffffffffffffff1681526020016002820160009054906101000a900473ffffffffffffffffffffffffffffffffffffffff1673ffffffffffffffffffffffffffffffffffffffff1673ffffffffffffffffffffffffffffffffffffffff1681526020016003820160009054906101000a900473ffffffffffffffffffffffffffffffffffffffff1673ffffffffffffffffffffffffffffffffffffffff1673ffffffffffffffffffffffffffffffffffffffff16815260200160048201548152602001600582015481525050612dbe565b8260030160006101000a81548173ffffffffffffffffffffffffffffffffffffffff021916908373ffffffffffffffffffffffffffffffffffffffff16021790555042826005018190555050505b505050565b61360a613f19565b613612614369565b81816020019073ffffffffffffffffffffffffffffffffffffffff16908173ffffffffffffffffffffffffffffffffffffffff168152505042816080018181525050600967ffffffffffffffff8111801561366c57600080fd5b506040519080825280601f01601f19166020018201604052801561369f5781602001600182028036833780820191505090505b50816000018190525060006136b2613f2e565b905081600360008363ffffffff1663ffffffff16815260200190815260200160002060008201518160000190805190602001906136f09291906143e1565b5060208201518160010160006101000a81548173ffffffffffffffffffffffffffffffffffffffff021916908373ffffffffffffffffffffffffffffffffffffffff16021790555060408201518160020160006101000a81548173ffffffffffffffffffffffffffffffffffffffff021916908373ffffffffffffffffffffffffffffffffffffffff16021790555060608201518160030160006101000a81548173ffffffffffffffffffffffffffffffffffffffff021916908373ffffffffffffffffffffffffffffffffffffffff1602179055506080820151816004015560a082015181600501559050507ff8d567c8d4388307eb508076fb618550071b2da1c178f8fe97a1a97e0a591f878184600060405161381193929190614c5a565b60405180910390a180600260046101000a81548163ffffffff021916908363ffffffff160217905550505050565b613847613f19565b600060036000600260049054906101000a900463ffffffff1663ffffffff1663ffffffff1681526020019081526020016000209050818160020160006101000a81548173ffffffffffffffffffffffffffffffffffffffff021916908373ffffffffffffffffffffffffffffffffffffffff1602179055508060010160009054906101000a900473ffffffffffffffffffffffffffffffffffffffff168160030160006101000a81548173ffffffffffffffffffffffffffffffffffffffff021916908373ffffffffffffffffffffffffffffffffffffffff16021790555061393281600001613f83565b4281600501819055507ff8d567c8d4388307eb508076fb618550071b2da1c178f8fe97a1a97e0a591f87600260049054906101000a900463ffffffff168260010160009054906101000a900473ffffffffffffffffffffffffffffffffffffffff16846040516139a493929190614c5a565b60405180910390a16000600260046101000a81548163ffffffff021916908363ffffffff1602179055505050565b60008060009054906101000a900460f81b7effffffffffffffffffffffffffffffffffffffffffffffffffffffffffffff1916827effffffffffffffffffffffffffffffffffffffffffffffffffffffffffffff19161415613a375760019050613a3c565b600290505b919050565b600060058260ff161415613a6f57613a588361402a565b80613a685750613a67836140ad565b5b9050613b1c565b60018260ff161480613a84575060038260ff16145b80613a92575060078260ff16145b80613aa0575060098260ff16145b15613ac557613aae8361402a565b80613abe5750613abd83614130565b5b9050613b1c565b60028260ff161480613ada575060048260ff16145b80613ae8575060068260ff16145b80613af6575060088260ff16145b15613b1b57613b04836140ad565b80613b145750613b1383614130565b5b9050613b1c565b5b92915050565b6000600360008363ffffffff1663ffffffff16815260200190815260200160002060030160009054906101000a900473ffffffffffffffffffffffffffffffffffffffff169050600360008363ffffffff1663ffffffff16815260200190815260200160002060008082016000613b999190614321565b6001820160006101000a81549073ffffffffffffffffffffffffffffffffffffffff02191690556002820160006101000a81549073ffffffffffffffffffffffffffffffffffffffff02191690556003820160006101000a81549073ffffffffffffffffffffffffffffffffffffffff0219169055600482016000905560058201600090555050613c28612da9565b8073ffffffffffffffffffffffffffffffffffffffff166108fc6718fae27693b400009081150290604051600060405180830381858888f19350505050158015613c76573d6000803e3d6000fd5b505050565b600080600090505b60098160ff161015613d1e57600060029054906101000a900460f81b7effffffffffffffffffffffffffffffffffffffffffffffffffffffffffffff191683600001518260ff1681518110613cd457fe5b602001015160f81c60f81b7effffffffffffffffffffffffffffffffffffffffffffffffffffffffffffff19161415613d11576000915050613d24565b8080600101915050613c83565b50600190505b919050565b6000600360008363ffffffff1663ffffffff16815260200190815260200160002060010160009054906101000a900473ffffffffffffffffffffffffffffffffffffffff1690506000600360008463ffffffff1663ffffffff16815260200190815260200160002060020160009054906101000a900473ffffffffffffffffffffffffffffffffffffffff169050600360008463ffffffff1663ffffffff16815260200190815260200160002060008082016000613de79190614321565b6001820160006101000a81549073ffffffffffffffffffffffffffffffffffffffff02191690556002820160006101000a81549073ffffffffffffffffffffffffffffffffffffffff02191690556003820160006101000a81549073ffffffffffffffffffffffffffffffffffffffff0219169055600482016000905560058201600090555050613e76612da9565b8173ffffffffffffffffffffffffffffffffffffffff166108fc670c7d713b49da00009081150290604051600060405180830381858888f19350505050158015613ec4573d6000803e3d6000fd5b508073ffffffffffffffffffffffffffffffffffffffff166108fc670c7d713b49da00009081150290604051600060405180830381858888f19350505050158015613f13573d6000803e3d6000fd5b50505050565b670de0b6b3a764000060015401600181905550565b6000600260009054906101000a900463ffffffff1690506002600081819054906101000a900463ffffffff168092919060010191906101000a81548163ffffffff021916908363ffffffff1602179055505090565b60005b60098160ff16101561402657600060029054906101000a900460f81b828260ff16815460018160011615610100020316600290048110613fc257fe5b815460011615613fe15790600052602060002090602091828204019190065b601f036101000a81548160ff021916907f0100000000000000000000000000000000000000000000000000000000000000840402179055508080600101915050613f86565b5050565b6000614037826001614223565b801561404a57506140498260056142a2565b5b801561405d575061405c826009614223565b5b80614095575061406e826003614223565b801561408157506140808260056142a2565b5b80156140945750614093826007614223565b5b5b156140a357600190506140a8565b600090505b919050565b60006140ba826002614223565b80156140cd57506140cc8260056142a2565b5b80156140e057506140df826008614223565b5b8061411857506140f1826004614223565b801561410457506141038260056142a2565b5b80156141175750614116826006614223565b5b5b15614126576001905061412b565b600090505b919050565b600061413d826001614223565b8015614150575061414f8260026142a2565b5b80156141635750614162826003614223565b5b8061419b5750614174826003614223565b801561418757506141868260066142a2565b5b801561419a5750614199826009614223565b5b5b806141d357506141ac826007614223565b80156141bf57506141be8260086142a2565b5b80156141d257506141d1826009614223565b5b5b8061420b57506141e4826001614223565b80156141f757506141f68260046142a2565b5b801561420a5750614209826007614223565b5b5b15614219576001905061421e565b600090505b919050565b60008060009054906101000a900460f81b7effffffffffffffffffffffffffffffffffffffffffffffffffffffffffffff191683600001516001840360ff168151811061426c57fe5b602001015160f81c60f81b7effffffffffffffffffffffffffffffffffffffffffffffffffffffffffffff191614905092915050565b60008060019054906101000a900460f81b7effffffffffffffffffffffffffffffffffffffffffffffffffffffffffffff191683600001516001840360ff16815181106142eb57fe5b602001015160f81c60f81b7effffffffffffffffffffffffffffffffffffffffffffffffffffffffffffff191614905092915050565b50805460018160011615610100020316600290046000825580601f106143475750614366565b601f016020900490600052602060002090810190614365919061446f565b5b50565b6040518060c0016040528060608152602001600073ffffffffffffffffffffffffffffffffffffffff168152602001600073ffffffffffffffffffffffffffffffffffffffff168152602001600073ffffffffffffffffffffffffffffffffffffffff16815260200160008152602001600081525090565b828054600181600116156101000203166002900490600052602060002090601f016020900481019282614417576000855561445e565b82601f1061443057805160ff191683800117855561445e565b8280016001018555821561445e579182015b8281111561445d578251825591602001919060010190614442565b5b50905061446b919061446f565b5090565b5b80821115614488576000816000905550600101614470565b5090565b60008135905061449b81614e00565b92915050565b6000813590506144b081614e17565b92915050565b6000602082840312156144c857600080fd5b60006144d68482850161448c565b91505092915050565b600080604083850312156144f257600080fd5b60006145008582860161448c565b9250506020614511858286016144a1565b9150509250929050565b61452481614d74565b82525050565b61453381614d86565b82525050565b600061454482614d1b565b61454e8185614d26565b935061455e818560208601614dbc565b61456781614def565b840191505092915050565b600061457f603e83614d26565b91507f546869732066756e6374696f6e2063616e206f6e6c792062652063616c6c656460008301527f20627920746865206f776e6572206f662074686520636f6e74726163742e00006020830152604082019050919050565b60006145e5603c83614d26565b91507f596f7520617265206e6f742070617274696369706174696e6720696e2074686560008301527f2067616d6520776974682074686520676976656e2067616d6549442e000000006020830152604082019050919050565b600061464b604083614d26565b91507f596f752063616e206f6e6c792075736520746869732066756e6374696f6e206960008301527f66207468652067616d6520686173206e6f74206265656e20737461727465642e6020830152604082019050919050565b60006146b1602783614d26565b91507f596f75206861766520616c72656164792071756575656420746f20706c61792060008301527f612067616d652e000000000000000000000000000000000000000000000000006020830152604082019050919050565b6000614717601c83614d26565b91507f4974206973206e6f7420796f7572207475726e20746f20706c61792e000000006000830152602082019050919050565b6000614757602d83614d26565b91507f546865206772696420736c6f742073656c656374656420776173206e6f74206160008301527f6e20656d70747920736c6f742e000000000000000000000000000000000000006020830152604082019050919050565b60006147bd602c83614d26565b91507f412067616d6520776974682074686520676976656e2067616d65494420646f6560008301527f73206e6f742065786973742e00000000000000000000000000000000000000006020830152604082019050919050565b6000614823605883614d26565b91507f5468652074696d65207061737365642066726f6d20746865206c61737420757060008301527f64617465206f66207468652074696d65722c206973206e6f7420656e6f75676860208301527f7420746f2063616c6c20746869732066756e6374696f6e2e00000000000000006040830152606082019050919050565b60006148af603a83614d26565b91507f596f752063616e6e6f742063616e63656c207468652067616d6520696620747760008301527f6f206d696e757465732068617665206e6f74207061737365642e0000000000006020830152604082019050919050565b6000614915601d83614d26565b91507f54686520696e70757420676976656e206973206e6f742076616c69642e0000006000830152602082019050919050565b6000614955603b83614d26565b91507f596f752063616e206e6f742063616e63656c207468652067616d65206966206960008301527f7420616c726561647920686173206265656e20737461727465642e00000000006020830152604082019050919050565b60006149bb603583614d26565b91507f54686520616d6f756e74206f6620457468657220746f2070617274696369706160008301527f74652073686f756c6420626520312045746865722e00000000000000000000006020830152604082019050919050565b6000614a21602b83614d26565b91507f596f752063616e6e6f742063616c6c20746869732066756e6374696f6e20696e60008301527f20796f7572207475726e2e0000000000000000000000000000000000000000006020830152604082019050919050565b614a8381614d57565b82525050565b614a9281614d67565b82525050565b60006020820190508181036000830152614ab28184614539565b905092915050565b60006020820190508181036000830152614ad381614572565b9050919050565b60006020820190508181036000830152614af3816145d8565b9050919050565b60006020820190508181036000830152614b138161463e565b9050919050565b60006020820190508181036000830152614b33816146a4565b9050919050565b60006020820190508181036000830152614b538161470a565b9050919050565b60006020820190508181036000830152614b738161474a565b9050919050565b60006020820190508181036000830152614b93816147b0565b9050919050565b60006020820190508181036000830152614bb381614816565b9050919050565b60006020820190508181036000830152614bd3816148a2565b9050919050565b60006020820190508181036000830152614bf381614908565b9050919050565b60006020820190508181036000830152614c1381614948565b9050919050565b60006020820190508181036000830152614c33816149ae565b9050919050565b60006020820190508181036000830152614c5381614a14565b9050919050565b6000606082019050614c6f6000830186614a7a565b614c7c602083018561451b565b614c89604083018461451b565b949350505050565b6000608082019050614ca66000830187614a7a565b614cb3602083018661451b565b614cc0604083018561452a565b614ccd606083018461452a565b95945050505050565b6000608082019050614ceb6000830187614a7a565b614cf8602083018661451b565b614d056040830185614a89565b614d126060830184614a89565b95945050505050565b600081519050919050565b600082825260208201905092915050565b600073ffffffffffffffffffffffffffffffffffffffff82169050919050565b600063ffffffff82169050919050565b600060ff82169050919050565b6000614d7f82614d98565b9050919050565b6000614d9182614d67565b9050919050565b6000614da382614daa565b9050919050565b6000614db582614d37565b9050919050565b60005b83811015614dda578082015181840152602081019050614dbf565b83811115614de9576000848401525b50505050565b6000601f19601f8301169050919050565b614e0981614d57565b8114614e1457600080fd5b50565b614e2081614d67565b8114614e2b57600080fd5b5056fea26469706673582212204a1d2c52e656185a03334d75c0d03f9df802149c80f62cdec046a119eef07a5c64736f6c63430007060033",
  "immutableReferences": {},
  "source": "\n// SPDX-License-Identifier: UNLICENCED\npragma solidity 0.7.6;\npragma experimental ABIEncoderV2;\n\ncontract MultySOS {\n\n    /*\n        * Constants\n    */\n\n    // The game's symbols. Would prefer them as enums but this format is cheaper and easier to implement.\n    byte private SYMBOL_S = \"S\";\n    byte private SYMBOL_O = \"O\";\n    byte private SYMBOL_DASH = \"-\";\n\n    /*\n        * State variables. These variables are saved in the state on the contract.\n        * Every change of these variables costs gas, and so should be done with caution.\n    */\n\n    // The address of the owner.\n    address payable private owner;\n    // Used to lock owner's profit while a game is conducted.\n    uint private ownersProfitLocked;\n\n    // The counter of the ID increment.\n    uint32 private idIncrement = 1;\n\n    // If an open game exists, its ID is stored here.\n    uint32 private openGame;\n\n    // The game states for each game in the MultySOS.\n    mapping(uint32 => SingleSOS) private states;\n\n    /*\n        *CryptoSOS Events.\n    */\n    event NewGame(uint32 _gameID, address _firstPlayer, address _secondPlayer);\n    event MoveEvent(uint32 _gameID, address _playerAddress, uint8 _placement, uint8 _symbol);\n\n    constructor() {\n        owner = msg.sender;\n    }\n\n    /*\n        * The external public API.\n    */\n    function play() external payable checkStateForPlay {\n        address payable playerAddress = msg.sender;\n        // If an open game does not exist.\n        if (openGame == 0) {\n            // Create the minimum state for a game.\n            createGame(playerAddress);\n        }\n        else {\n            // Join an already existing game.\n            joinGame(playerAddress);\n        }\n    }\n\n    function placeS(uint32 _gameID, uint8 _placement) external doesGameExist(_gameID) isInTheGame(_gameID) checkStateForPlace(_gameID, _placement) {\n        place(_gameID, _placement, SYMBOL_S);\n    }\n\n    function placeO(uint32 _gameID, uint8 _placement) external doesGameExist(_gameID) isInTheGame(_gameID) checkStateForPlace(_gameID, _placement) {\n        place(_gameID, _placement, SYMBOL_O);\n    }\n\n    function getGameState(uint32 _gameID) external view doesGameExist(_gameID) returns(string memory grid_) {\n        grid_ = string(states[_gameID].grid);\n    }\n    \n    function collectProfit() external isOwner {\n        uint ownersProfit = address(this).balance - ownersProfitLocked;\n        owner.transfer(ownersProfit);\n    }\n\n    function cancel(uint32 _gameID) external doesGameExist(_gameID) isInTheGame(_gameID) checkStateForCancel(_gameID) {\n        SingleSOS memory state = states[_gameID];\n        address payable firstPlayerTemp = state.firstPlayer;\n        openGame = 0;\n        delete states[_gameID];\n        unlockTwoEther();\n        // Paying should always be the last action!\n        firstPlayerTemp.transfer(1 ether);\n    }\n\n    function ur2slow(uint32 _gameID) external doesGameExist(_gameID) isInTheGame(_gameID) isOpponentTurn(_gameID) hasGameStarted(_gameID)\n     didTimePassed(_gameID, 60) {\n        SingleSOS memory state = states[_gameID];\n        address payable winningPlayerTemp = getPlayerNotPlaying(state);\n        emit MoveEvent(_gameID, winningPlayerTemp, 0, 0);\n        delete states[_gameID];\n        // Unlock the owner's profit.\n        ownersProfitLocked = 0;\n        // Paying should always be the last action!\n        winningPlayerTemp.transfer(1.9 ether);\n    }\n\n    /*\n        * Helper Functions.\n    */\n    function place(uint32 _gameID, uint8 _placement, byte  _symbol) internal {\n        SingleSOS storage state = states[_gameID];\n        uint8 arrayPlacement = _placement - 1;\n        // Check if the input corresponds to an empty grid slot. Revert if not.\n        require(state.grid[arrayPlacement] == SYMBOL_DASH, \"The grid slot selected was not an empty slot.\");\n        // Make the change to the grid.\n        state.grid[arrayPlacement] = _symbol;\n        // Emit a move Event.\n        emit MoveEvent(_gameID, state.playerPlaying, _placement, convertFromSymbolToNumber(_symbol));\n        // Check if the player won by making the move.\n        if (isWinning(state, _placement)) {\n            endWin(_gameID);\n            return;\n        }\n        // Check if the game concluded with a draw.\n        if (isDraw(state)) {\n            endDraw(_gameID);\n            return;\n        }\n        // Change the player playing.\n        state.playerPlaying = getPlayerNotPlaying(state);\n        // Reset the timer for the next turn.\n        state.timer = block.timestamp;\n    }\n\n    function isWinning(SingleSOS memory _state, uint8 _placement) internal view returns (bool isWinning_) {\n        if (_placement == 5) {\n            return checkCross(_state) || checkDiagonals(_state);\n        }\n        if (_placement == 1 || _placement == 3 || _placement == 7 || _placement == 9) {\n            return checkCross(_state) || checkFrame(_state);\n        }\n        if (_placement == 2 || _placement == 4 || _placement == 6 || _placement == 8) {\n            return checkDiagonals(_state) || checkFrame(_state);\n        }\n    }\n\n    function isDraw(SingleSOS memory _state) internal view returns (bool) {\n        for (uint8 i=0; i<9; i++) {\n            if(_state.grid[i] == SYMBOL_DASH) {\n                return false;\n            }\n        }\n        return true;\n    }\n\n    function checkCross(SingleSOS memory _state) internal view returns (bool) {\n        if ((isS(_state, 1) && isO(_state, 5) && isS(_state, 9)) || (isS(_state, 3) && isO(_state, 5) && isS(_state, 7))) {\n            return true;\n        }\n        return false;\n    }\n\n    function checkDiagonals(SingleSOS memory _state) internal view returns (bool) {\n        if ((isS(_state, 2) && isO(_state, 5) && isS(_state, 8)) || (isS(_state, 4) && isO(_state, 5) && isS(_state, 6))) {\n            return true;\n        }\n        return false;\n    }\n\n    function checkFrame(SingleSOS memory _state) internal view returns (bool) {\n        if ((isS(_state, 1) && isO(_state, 2) && isS(_state, 3)) || (isS(_state, 3) && isO(_state, 6) && isS(_state, 9)) ||\n         (isS(_state, 7) && isO(_state, 8) && isS(_state, 9)) || (isS(_state, 1) && isO(_state, 4) && isS(_state, 7))) {\n            return true;\n        }\n        return false;\n    }\n\n    function endWin(uint32 _gameID) internal {\n        address payable winningPlayerTemp = states[_gameID].playerPlaying;\n        delete states[_gameID];\n        unlockTwoEther();\n        // Paying should always be the last action!\n        winningPlayerTemp.transfer(1.8 ether);\n    }\n\n    function endDraw(uint32 _gameID) internal {\n        address payable firstPlayerTemp = states[_gameID].firstPlayer;\n        address payable secondPlayerTemp = states[_gameID].secondPlayer;\n        delete states[_gameID];\n        unlockTwoEther();\n        // Paying should always be the last action!\n        firstPlayerTemp.transfer(0.9 ether);\n        secondPlayerTemp.transfer(0.9 ether);\n    }\n\n    // The first player creates a minimum game state is constructed when the first player enters.\n    function createGame (address payable _firstPlayer) internal {\n        lockOneEther();\n        SingleSOS memory newGame; //= SingleSOS();\n        newGame.firstPlayer = _firstPlayer;\n        newGame.firstPlayerJoinedTime = block.timestamp;\n        newGame.grid = new bytes(9);\n        uint32 gameID = generateGameID();\n        states[gameID] = newGame;\n        // When the first player joins the game, an event that has 0 as the second address is omited.\n        emit NewGame(gameID, _firstPlayer, address(0));\n        // The game is now open for another player to join.\n        openGame = gameID;\n    }\n\n   // The second player completes the game state and initializes the game.\n    function joinGame (address payable _secondPlayer) internal {\n        lockOneEther();\n        SingleSOS storage gameJoined = states[openGame];\n        gameJoined.secondPlayer = _secondPlayer;\n        gameJoined.playerPlaying = gameJoined.firstPlayer;\n        createBoard(gameJoined.grid);\n        // Initialize the timer of this game.\n        gameJoined.timer = block.timestamp;\n        // Now both players are present and the game begins.\n        emit NewGame(openGame, gameJoined.firstPlayer, _secondPlayer);\n        // The game has closed now, a new game should be created.\n        openGame = 0;\n    }\n\n    function createBoard(bytes storage _grid) internal {\n        for (uint8 i=0; i<9; i++) {\n            _grid[i] = SYMBOL_DASH;\n        }\n    }\n\n    function generateGameID() internal returns (uint32 idIncrement_){\n        idIncrement_ = idIncrement;\n        idIncrement++;\n    }\n\n    // Locks a player fee.\n    function lockOneEther() internal {\n        ownersProfitLocked = ownersProfitLocked + 1 ether;\n    }\n\n    // Unocks the game fee.\n    function unlockTwoEther() internal {\n        ownersProfitLocked = ownersProfitLocked - 2 ether;\n    }\n\n    function getPlayerNotPlaying(SingleSOS memory _state) internal pure returns (address payable) {\n        if (_state.playerPlaying == _state.firstPlayer) {\n            return _state.secondPlayer;\n        }\n        return _state.firstPlayer;\n    }\n\n    /*\n        *Function specific modifiers\n    */\n\n    // Checks if the play function can be called for the specific caller.\n    modifier checkStateForPlay() {\n        // The player has already queued to play a game.\n        require(states[openGame].firstPlayer != msg.sender, \"You have already queued to play a game.\");\n        // Exacly one Ether ether is required to play, in all other cases, the function call will be reverted.\n        require(msg.value == 1 ether, \"The amount of Ether to participate should be 1 Ether.\");\n        _;\n    }\n\n    // Checks if the place functions can be called for the specific user, for the specific state of the game.\n    modifier checkStateForPlace(uint32 _gameID, uint8 _placement) {\n        SingleSOS memory state = states[_gameID];\n        // Checks if it is this player's turn to play.\n        require(msg.sender == state.playerPlaying, \"It is not your turn to play.\");\n        // Checks if the input is out of bounce.\n        require(_placement > 0 && _placement < 10, \"The input given is not valid.\");\n        _;\n    }\n\n    modifier checkStateForCancel(uint32 _gameID) {\n        SingleSOS memory state = states[_gameID];\n        // Checks if the game has not been started, that is when only the first player ha joined.\n        require(isEmpty(state.secondPlayer), \"You can not cancel the game if it already has been started.\");\n        // Checks if two minutes have been passed.\n        require(block.timestamp - state.firstPlayerJoinedTime > 120, \"You cannot cancel the game if two minutes have not passed.\");\n        _;\n    }\n\n    /*\n        *General purpose modifiers\n    */\n\n    // Checks if the game with the given gameID exists.\n    modifier doesGameExist(uint32 _gameID) {\n        SingleSOS memory state = states[_gameID];\n        // A game exists only if the first player has joined it.\n        require(!isEmpty(state.firstPlayer), \"A game with the given gameID does not exist.\");\n        _;\n    }\n\n    modifier hasGameStarted(uint32 _gameID) {\n        SingleSOS memory state = states[_gameID];\n        // Checks if the game has not been started, that is when both players have not joined.\n        require(!isEmpty(state.secondPlayer), \"You can only use this function if the game has not been started.\");\n        _;\n    }\n\n    // Checks if the caller is participating in the game with the given gameID.\n    modifier isInTheGame(uint32 _gameID) {\n        SingleSOS memory state = states[_gameID];\n        // Check if the caller is one of the two players.\n        require(msg.sender == state.firstPlayer || msg.sender == state.secondPlayer, \"You are not participating in the game with the given gameID.\");\n        _;\n    }\n\n    // Checks if caller is the owner.\n    modifier isOwner() {\n        require(msg.sender == owner, \"This function can only be called by the owner of the contract.\");\n        _;\n    }\n\n    // Checks if a certain amount of time has passed from the last update of the timer.\n    modifier didTimePassed(uint32 _gameID, uint _timePassed) {\n        require(block.timestamp - states[_gameID].timer > _timePassed, \"The time passed from the last update of the timer, is not enought to call this function.\");\n        _;\n    }\n\n    // Check if it is the opponents turn to play. Reverts in case it is not.\n    modifier isOpponentTurn(uint32 _gameID) {\n        SingleSOS memory state = states[_gameID];\n        // A player cannot call this function if it is his turn.\n        require(msg.sender != state.playerPlaying, \"You cannot call this function in your turn.\");\n        _;\n    }\n\n    /*\n        *Utility Functions.\n    */\n\n    function isS(SingleSOS memory _state, uint8 _placement) internal view returns (bool isS_) {\n        isS_ = _state.grid[_placement-1] == SYMBOL_S;\n    }\n\n    function isO(SingleSOS memory _state, uint8 _placement) internal view returns (bool isO_) {\n        isO_ = _state.grid[_placement-1] == SYMBOL_O;\n    }\n    function isEmpty(address _addressToCheck) internal pure returns (bool isEmpty_) {\n        isEmpty_ =  _addressToCheck == address(0);\n    }\n\n    // This function should only be called to convert from symbol \"B\" to 1 or from symbol \"O\" to 2. \n    function convertFromSymbolToNumber(byte _symbol) internal view returns (uint8) {\n        if (_symbol == SYMBOL_S) {\n            return 1;\n        }\n        return 2;\n    }\n\n    // A struct that keeps the state of a single MultySOS game.\n    struct SingleSOS {\n\n        // The 3x3 grid of the game. It is more efficient to keep it as a byte array and cast it to string when needed externally.\n        bytes grid;\n\n        address payable firstPlayer;\n        address payable secondPlayer;\n\n        // The address of the player playing.\n        address payable playerPlaying;\n\n        // The timestamp of the block, when the first player joined.\n        uint firstPlayerJoinedTime;\n\n        // The timer for the player move.\n        uint timer;\n    }\n}",
  "sourcePath": "D:/repositories/aueb/crypto-sos/src/contracts/MultySOS.sol",
  "compiler": {
    "name": "solc",
    "version": "0.7.6+commit.7338295f.Emscripten.clang"
  },
  "schemaVersion": "3.3.2",
  "updatedAt": "2021-01-17T20:57:37.197Z",
  "networkType": "ethereum",
  "devdoc": {
    "kind": "dev",
    "methods": {},
    "version": 1
  },
  "userdoc": {
    "kind": "user",
    "methods": {},
    "version": 1
  }
}